:100000000C94BE000C94DF000C94DF000C94DF0015
:100010000C94DF000C94DF000C94DF000C94DF00E4
:100020000C94DF000C94DF000C943D0B0C94DF006B
:100030000C94DF000C94790B0C94DF000C94A00A54
:100040000C94DF000C94DF000C94DF000C94DF00B4
:100050000C94DF000C94DF000C94DF000C946D1EF8
:100060000C94DF000C949F130C94DF000C94DF00C1
:100070000C94DF000C9409020C94DF000C94DF0058
:100080000C9448130C945E130C94DF000C94BB1278
:100090000C94DF000C94DF000C94DF000C94DF0064
:1000A0000C94DF000C94DF000C948F120C94A512BA
:1000B0000C94DF000C94F4110C94DF000C94DF001E
:1000C0000C94DF000C94DF000C94DF000C94DF0034
:1000D0000C94DF000C94DF000C94DF000C94DF0024
:1000E0000C94DF00090ECA0DE50CB50D8C0DDC0C6F
:1000F000630DF40D220DDF0D8B0E8B0E8B0E8B0E10
:100100008B0E8B0E540E580E8B0E8B0E8B0E8B0E91
:100110008B0E8B0E8B0E8B0E8B0E8B0E8B0E8B0E17
:10012000220DE50C5B0E5F0E8B0E8B0E8B0E8B0E75
:100130008B0E8B0E8B0E8B0E8B0E8B0E8B0E8B0EF7
:100140008C0D630D8B0E8B0E090EDC0C620E084AB3
:10015000D73B3BCE016E84BCBFFDC12F3D6C7431DB
:100160009ABD56833DDA3D00C77F11BED9E4BB4C32
:100170003E916BAAAABE000000803F0011241FBE62
:10018000CFEFD1E2DEBFCDBF00E00CBF12E0A0E0B8
:10019000B2E0E6E4F5E400E00BBF02C007900D9288
:1001A000AA31B107D9F713E0AAE1B2E001C01D926C
:1001B000AA36B107E1F70E945B1E0C94A1220C94B1
:1001C00000000E94420A0E94851B0E94EC170E94B8
:1001D000150B60931A0270931B0280931C0290937C
:1001E0001D020895CF93DF930E941C0A80932C0375
:1001F0000E94241A0E94C01C0E94150B60931E02CC
:1002000070931F02809320029093210220911A0282
:1002100030911B0240911C0250911D02621B730B16
:10022000840B950B6E312BE4720720E0820720E0EF
:10023000920740F10E941E0B80912C038450823063
:10024000B8F40E942822CFEFD0E0BE010E94C7215F
:10025000809310020E942822BE010E94C721809331
:1002600011020E942822BE010E94C721809312021F
:100270000E94150B60931A0270931B0280931C025C
:1002800090931D020E94BE0C0E94BE1480912C030C
:1002900060E00E94901380912C038230B1F0833093
:1002A00030F4882361F0813009F050C00BC08430F5
:1002B000A1F0843068F0853009F048C033C00E9456
:1002C0001E0F44C00E94B21941C00E94B9193EC01D
:1002D0000E94B2190E94B91939C0EBE0F1E08081A7
:1002E0008E7F808380818D7F808380818B7F8083E0
:1002F000A39880818F7E808380818F7D80838081A1
:100300008F7B808380818F778083809110020E9411
:100310001F1E809111020E94331E809112020E94C2
:10032000471E14C0809110020E941F1E809111026E
:100330000E94331E809112020E94471E0E94B21931
:1003400089E10E947A1189E10E94B71180912C0302
:10035000882311F00E943F109091220280912C037B
:10036000981769F10E94B6190E94BD19EBE0F1E0FF
:1003700080818160808380818260808380818460CD
:100380008083A39A80818061808380818062808362
:100390008081806480838081806880838FEF8093F8
:1003A000100280931102809312020E941F1E8091FE
:1003B00011020E94331E809112020E94471E8091FA
:1003C0002C0380932202DF91CF910895CF93DF9386
:1003D000EAE7F0E01082ABE7B0E01C92CCE7D0E0B7
:1003E0001882808186608083888180648883808190
:1003F000806280838C91887F8C93808188608083E9
:10040000808180688083808180648083DF91CF9148
:1004100008951F920F920FB60F920BB60F921124F0
:100420002F933F934F935F936F937F938F939F93FC
:10043000AF93BF93EF93FF9380912803909129038B
:10044000A0912A03B0912B030196A11DB11D8093A9
:10045000280390932903A0932A03B0932B032091A0
:10046000780030E040917900942F80E0822B932B2C
:100470002091BE02223009F41DC1233030F4222322
:1004800059F0213009F068C108C1233009F434C1A2
:10049000243009F061C13DC1E0912902EE3061F4E0
:1004A0002091C402223041F49093C3028093C2028F
:1004B0001092C402469807C0F0E0EE0FFF1FE25D05
:1004C000FD4F91838083A09129028A2F90E0A0FFA5
:1004D000D6C0FC0131974EE252E0EE0FFF1FE40F51
:1004E000F51F20813181880F991F480F591FFA018C
:1004F000408151818A2F869590E0241B350BAC01F9
:10050000440F551FFA01EA58FD4F60817181261B87
:10051000370B425A5D4FFA0131832083332324F491
:10052000FA01118210820DC0F4E021303F074CF037
:10053000FC01EE0FFF1FE25AFD4F20E034E0318353
:100540002083A03108F055C0FC01EE0FFF1FE25AD6
:10055000FD4F208131812C33310544F4FC01EE0F35
:10056000FF1FEA53FD4F3183208343C0A901445C40
:100570005F4F559547954837510574F4FC01EE0FD0
:10058000FF1FEA53FD4F2C533040C90195958795C5
:10059000CC96918380832DC0A901445D5E4F559513
:1005A000479555954795443B51058CF4FC01EE0F5A
:1005B000FF1FEA53FD4F245B3040C9019595879595
:1005C0009595879588589F4F9183808312C0FC0131
:1005D000EE0FFF1FEA53FD4F245A3140C901959594
:1005E000879595958795959587958C549F4F918381
:1005F000808380913103882309F43FC080916E028B
:1006000090916F0221E0843A9207C4F080917002C9
:100610009091710241E0843A940784F080917202D3
:100620009091730251E0843A950744F080917402EE
:1006300090917502E1E0843A9E07E4F481E08093B2
:1006400032031092F1021092F0021092A90010925F
:10065000A8001092AB001092AA001092EF02109224
:10066000EE02109299001092980010929B00109246
:100670009A0005C01092320302C01092320380919A
:1006800029028F5F80932902883108F465C0109297
:10069000290281E08093C5025FC02091E002309181
:1006A000E102820F931F969587959093E1028093C4
:1006B000E00252C020910D02222309F44DC063993B
:1006C0004BC0649949C0422F4F5F40930D024530A3
:1006D00008F442C02091E8023091E902820F931F92
:1006E0009093E9028093E8024830B1F510920D0230
:1006F00081E080930C0230C02091DE023091DF0255
:10070000820F931F969587959093DF028093DE0268
:1007100023C020910E022223F9F03091000133FD15
:100720001BC03091000134FD17C0422F4F5F409332
:100730000E02453088F02091E6023091E702820FE8
:10074000931F9093E7028093E602483029F41092B9
:100750000E0281E080930B028091BF028230B9F1DA
:10076000833030F4882359F0813009F0E6C021C08D
:10077000833009F449C0843009F0DFC062C0809141
:1007800029028695809328028091C002882321F453
:1007900081E08093BE0209C0813021F482E0809321
:1007A000BE0203C085E08093BE0281E08093BF0259
:1007B000C4C080912A028093280280912D028093E8
:1007C000C1021092BE0282E08093BF02B6C0809147
:1007D0002B028093280280912C028093C00280918A
:1007E000C102882321F483E08093BE0209C08130D6
:1007F00021F484E08093BE0203C085E08093BE02B2
:1008000083E08093BF0299C080912A0280932802DE
:1008100080912D028093C1028091C002882321F42F
:1008200081E08093BE0209C0813021F482E0809390
:10083000BE0203C085E08093BE0284E08093BF02C5
:100840007CC080912B028093280280912C0280939F
:10085000C0028091C102882321F483E08093BE020C
:1008600009C0813021F484E08093BE0203C085E09A
:100870008093BE021092BF02809129028E3041F413
:100880008091C402813021F482E08093C402469AB0
:1008900020912902822F90E020FF4FC0203160F488
:1008A000822F869521E030E0A90102C0440F551F38
:1008B0008A95E2F742B941C020912F03222369F4BF
:1008C00040979595879521E030E0F90102C0EE0F41
:1008D000FF1F8A95E2F7E093050180912F03813095
:1008E000A1F4E5E0F1E040812091290230E02051BF
:1008F00030403595279581E090E002C0880F991F20
:100900002A95E2F780958423808380912F0382309B
:10091000A1F4E5E0F1E040812091290230E020518E
:1009200030403595279581E090E002C0880F991FEF
:100930002A95E2F78095842380838091280288306D
:1009400058F4EBE7F0E08081877F80838091280274
:10095000805C80937C000AC0EBE7F0E080818860D7
:10096000808380912802885C80937C008091BF0204
:100970008230D1F480912F03882331F4E5E0F1E057
:100980008081807F808312B880912F03813021F491
:100990008FEF8093050112B880912F03823021F4EC
:1009A0008FEF8093050112B8FF91EF91BF91AF9146
:1009B0009F918F917F916F915F914F913F912F9177
:1009C0000F900BBE0F900FBE0F901F90189585B71C
:1009D000806185BF8FEF81B912B897EF94B990EE1F
:1009E00095B990EF97B990EB98B99CEF9AB993E0CD
:1009F0009BB98DB91EB810BA83BB80912F03882391
:100A000009F414BA80912F03813009F414BA80914B
:100A10002F03823011F488E084BB8FEF80930101B3
:100A2000109202018FE08093040180912F038823AC
:100A300021F4E5E0F1E08081108280912F03813084
:100A400019F48FE08093050180912F03823019F40F
:100A50008FE080930501109207018FEF80930A01C8
:100A600080912F03882311F410920B0180912F03A2
:100A7000813011F410920B0180912F03823019F410
:100A800087EF80930B010895FC018081918100978D
:100A900069F41092FB021092FA0210923F03109236
:100AA0003E03109259031092580308952091250394
:100AB0003091260341E02E30340724F11816190630
:100AC0009CF488E691E0AC01421B530B9A013595EA
:100AD00027953595279589E190E0821B930B90939C
:100AE00008028093070276C088E691E0821B930B90
:100AF000959587959595879549969093080280934B
:100B0000070268C0243B310524F11816190674F455
:100B100084EB90E0821B930B95958795959587952F
:100B20004996909308028093070254C084EB90E0AA
:100B3000AC01421B530B9A013595279535952795A6
:100B400089E190E0821B930B909308028093070247
:100B500041C02A35310524F11816190674F484EBC6
:100B600090E0821B930B959587959595879549966F
:100B700090930802809307022DC084EB90E0AC01B3
:100B8000421B530B9A01359527953595279589E199
:100B900090E0821B930B90930802809307021AC087
:100BA000181619065CF43595279535952795275E17
:100BB0003F4F30930802209307020CC035952795CC
:100BC0003595279589E190E0821B930B909308025D
:100BD0008093070280913E0390913F0390935903C5
:100BE000809358038081918199235CF02091EA02DF
:100BF0003091EB02821B930B90933F0380933E0353
:100C00000AC02091EA023091EB02820F931F909369
:100C10003F0380933E0320913E0330913F03809138
:100C2000FA029091FB02820F931F9093FB02809334
:100C3000FA0256E0813495073CF080E496E0909308
:100C4000FB028093FA020AC029EF803C920734F439
:100C500080EC99EF9093FB028093FA0280913E031F
:100C600090913F032091FA023091FB02A901440FB9
:100C7000551F240F351FBC01660F771FAC01440FB1
:100C8000551F440F551F440F551F460F571F240F64
:100C9000351F4091580350915903481B590B440F7D
:100CA000551FC901840F951F608171812091070232
:100CB00030910802629FA001639F500D729F500DFA
:100CC0001124840F951F9093F9028093F8029923C1
:100CD0004CF42081318133232CF01092F9021092D0
:100CE000F8021BC0181619064CF4808191819923D3
:100CF0002CF41092F9021092F8021EC08091F802B2
:100D00009091F9024DE5813C94073CF080EC9DE523
:100D10009093F9028093F80221C08091F80290919B
:100D2000F90252EA803495073CF480E492EA909309
:100D3000F9028093F8021DC08091F8029091F902A7
:100D4000959587959595879595958795959587958B
:100D50009183808322E0813092072CF080E092E042
:100D6000918380830895808191814EEF8030940734
:100D700024F480E09EEF918380830895FC018081BC
:100D80009181009769F41092FD021092FC0210927A
:100D90006803109267031092410310924003089574
:100DA000209125033091260341E02E30340724F1B1
:100DB000181619069CF488E691E0AC01421B530B0F
:100DC0009A01359527953595279589E190E0821B05
:100DD000930B90930A028093090276C088E691E013
:100DE000821B930B9595879595958795499690933A
:100DF0000A028093090268C0243B310524F11816C9
:100E0000190674F484EB90E0821B930B95958795FB
:100E100095958795499690930A028093090254C04C
:100E200084EB90E0AC01421B530B9A01359527955A
:100E30003595279589E190E0821B930B90930A02E8
:100E40008093090241C02A35310524F1181619068C
:100E500074F484EB90E0821B930B959587959595A0
:100E60008795499690930A02809309022DC084EBDE
:100E700090E0AC01421B530B9A01359527953595AF
:100E8000279589E190E0821B930B90930A0280934F
:100E900009021AC0181619065CF435952795359580
:100EA0002795275E3F4F30930A02209309020CC01A
:100EB000359527953595279589E190E0821B930B11
:100EC00090930A02809309028091670390916803CE
:100ED00090934103809340038081918199235CF03A
:100EE0002091EC023091ED02821B930B90936803EA
:100EF000809367030AC02091EC023091ED02820FCB
:100F0000931F909368038093670320916703309148
:100F100068038091FC029091FD02820F931F9093D1
:100F2000FD028093FC0256E0813495073CF080E49A
:100F300096E09093FD028093FC020AC029EF803C6A
:100F4000920734F480EC99EF9093FD028093FC02B9
:100F500080916703909168032091FC023091FD021B
:100F6000A901440F551F240F351FBC01660F771FC1
:100F7000AC01440F551F440F551F440F551F460F1A
:100F8000571F240F351F4091400350914103481BC8
:100F9000590B440F551FC901840F951F6081718142
:100FA0002091090230910A02629FA001639F500DB7
:100FB000729F500D1124840F951F9093F702809318
:100FC000F60299234CF42081318133232CF01092C6
:100FD000F7021092F6021BC0181619064CF4808115
:100FE000918199232CF41092F7021092F6021EC000
:100FF0008091F6029091F7024DE5813C94073CF018
:1010000080EC9DE59093F7028093F60221C08091D9
:10101000F6029091F70252EA803495073CF480E49E
:1010200092EA9093F7028093F6021DC08091F60237
:101030009091F702959587959595879595958795C4
:10104000959587959183808322E0813092072CF0DB
:1010500080E092E0918380830895808191814EEFBA
:101060008030940724F480E09EEF9183808308957C
:10107000FC0180819181009769F41092FD02109229
:10108000FC021092680310926703109241031092C1
:101090004003089580916703909168039093410302
:1010A000809340038081918199235CF02091EC0230
:1010B0003091ED02821B930B90936803809367033A
:1010C0000AC02091EC023091ED02820F931F9093A1
:1010D00068038093670320916703309168038091D0
:1010E000FC029091FD02820F931F9093FD0280936A
:1010F000FC0226E0813492073CF080E496E0909375
:10110000FD028093FC020AC029EF803C920734F470
:1011100080EC99EF9093FD028093FC02809167032D
:10112000909168032091FC023091FD02220F331F41
:10113000AC01440F551F480F591F440F551F440F52
:10114000551F440F551F480F591F420F531F209121
:10115000400330914103281B390BC901880F991FA7
:10116000280F391FCA01820F931F40815181440FFC
:10117000551F440F551F440F551F840F951F909303
:10118000F7028093F60299234CF4208131813323B6
:101190002CF01092F7021092F6021DC018161906D4
:1011A0004CF48081918199232CF41092F7021092D3
:1011B000F60222C08091F6029091F7022DE5813C63
:1011C00092074CF080EC9DE59093F7028093F60235
:1011D0008CED95E022C08091F6029091F70222EA10
:1011E000803492074CF480E492EA9093F702809363
:1011F000F60284E29AEF17C08091F6029091F7020E
:1012000095958795959587959595879595958795C6
:10121000918380831816190624F44E969183808357
:1012200005C099231CF44E9791838083808191811E
:1012300022E0813092072CF080E092E0918380835D
:1012400008952EEF8030920724F480E09EEF918382
:1012500080830895FC0180819181009769F4109248
:10126000FB021092FA0210923F0310923E0310927A
:10127000590310925803089580913E0390913F03C3
:1012800090935903809358038081918199235CF056
:101290002091EA023091EB02821B930B90933F0363
:1012A00080933E030AC02091EA023091EB02820F44
:1012B000931F90933F0380933E0320913E03309110
:1012C0003F038091FA029091FB02820F931F90934B
:1012D000FB028093FA0226E0813492073CF080E41E
:1012E00096E09093FB028093FA020AC029EF803CBB
:1012F000920734F480EC99EF9093FB028093FA020A
:1013000080913E0390913F032091FA023091FB02BD
:10131000220F331FAC01440F551F480F591F440FB4
:10132000551F440F551F440F551F480F591F420F9B
:10133000531F2091580330915903281B390BC901C1
:10134000880F991F280F391FCA01820F931F4081F0
:101350005181440F551F440F551F440F551F840FD3
:10136000951F9093F9028093F80299234CF4208101
:10137000318133232CF01092F9021092F8021DC033
:10138000181619064CF48081918199232CF410923F
:10139000F9021092F80222C08091F8029091F902AD
:1013A0002DE5813C92074CF080EC9DE59093F9028D
:1013B0008093F8028CED95E022C08091F802909124
:1013C000F90222EA803492074CF480E492EA909386
:1013D000F9028093F80284E29AEF17C08091F80234
:1013E0009091F9029595879595958795959587950F
:1013F00095958795918380831816190624F44E9647
:101400009183808305C099231CF44E979183808338
:101410008081918122E0813092072CF080E092E07F
:101420009183808308952EEF8030920724F480E02A
:101430009EEF91838083089566B146B186B126B14F
:1014400090E088709070959587959595879595957E
:101450008795880F991F50E04470507055954795B7
:1014600055954795840F951F880F991F30E022707E
:10147000307035952795820F931F880F962F9170A6
:10148000890F0895F89414BC15BC10926E00109248
:101490002001109221018EEF9FE00E944022909344
:1014A0000703809306038DEF9FE00E94382280930C
:1014B0003D03982F91509E3F18F48093660008C01A
:1014C0006091660060933D038DEF9FE00E9446228D
:1014D00080910603909107039C0121583C402330E2
:1014E000310510F410922F032CE08038920721F47C
:1014F00081E080932F0307C02CE08438920718F016
:1015000082E080932F030E94E7040E94E6010E947C
:10151000C00E0E94FD1D0E94331D0E948C148091FC
:101520000903882329F480910803816080930803CC
:101530000E9474130E940C1A0E94220B7894089542
:101540001F920F920FB60F9211240F900FBE0F90A3
:101550001F901895CF93DF939EE1899FE00111249E
:10156000E8E6F0E080818D7F8083ECE6F0E080812A
:101570008F778083D99AEAE7F0E0108280818061DA
:10158000808310929000109291001092710088B3A5
:10159000876088BB1092A0001092A1001092720088
:1015A00089B3876089BB10928000109281000E94ED
:1015B00089130E943F1D0E94951D0E94E70483B776
:1015C0008F6083BF81E080937000E0EBF0E080816A
:1015D0008D7F8083E1EBF0E08081876080832097BE
:1015E00019F088952197E9F713BEE1EBF0E08081CF
:1015F000887F808310927000E0EBF0E08081826051
:1016000080838FEF809310028093110280931202E7
:101610001092EF021092EE021092F1021092F0027C
:101620000E94420ADF91CF91089560912803709142
:10163000290380912A0390912B03089581E08093E0
:10164000C4020895CF93DF93C8E6D0E01882ACE6D9
:10165000B0E01C92E0EBF0E010821092B10010922A
:1016600070008881826088838C9180688C938081EF
:1016700082608083DF91CF9108951F920F920FB601
:101680000F920BB60F9211248F93EF93FF938091DB
:101690001402882321F18091030186FD20C0E8E631
:1016A000F0E080818D7F8083ECE6F0E080818F77B1
:1016B000808381E0809315028DE08093B300E1EB9D
:1016C000F0E0808186608083E0E7F0E080818260E6
:1016D0008083109225021092260210922702FF9119
:1016E000EF918F910F900BBE0F900FBE0F901F9038
:1016F00018951F920F920FB60F920BB60F921124EE
:101700002F933F934F935F936F937F938F939F9309
:10171000EF93FF93E1EBF0E08081887F80838091FD
:101720001502882329F18091030186FF11C0E8E6A4
:10173000F0E0808182608083ECE6F0E08081806868
:1017400080838FEF9FEF909306028093050202C182
:101750001092150283E38093B300E1EBF0E0808107
:1017600086608083E0E7F0E0808182608083DFC074
:1017700080910502909106022FEF8F3F920769F545
:101780008091030186FF11C0E8E6F0E0808182606D
:101790008083ECE6F0E08081806880838FEF9FEFAC
:1017A0009093060280930502D5C08CE18093B3002C
:1017B000E1EBF0E0808186608083E0E7F0E080810B
:1017C00082608083109225021092260210922702D6
:1017D0001092060210920502B8C081309105E9F41A
:1017E0008091030190E080749070082E892F000C86
:1017F000881F990B000C881F991F8093270286E38E
:101800008093B300E1EBF0E0808186608083E0E7C5
:10181000F0E08081826080838AC09C012250304049
:101820002530310568F526E32093B300E1EBF0E0C5
:10183000208126602083E0E7F0E020812260208381
:101840002091030130E020743070022E232F000C11
:10185000221F330B000C221F331F46E050E0BA0159
:10186000681B790BA901062E02C0440F551F0A946C
:10187000E2F7CA0120912602820F8093260257C008
:101880009C01275030402630310568F526E320932F
:10189000B300E1EBF0E0208126602083E0E7F0E098
:1018A0002081226020832091030130E02074307079
:1018B000022E232F000C221F330B000C221F331F7C
:1018C0004CE050E0BA01681B790BA901062E02C05A
:1018D000440F551F0A94E2F7CA0120912502820F96
:1018E0008093250224C08D30910579F51092700007
:1018F000E8E6F0E0808182608083ECE6F0E08081C1
:10190000806880838FEF9FEF90930602809305029B
:101910008091270280930402809126028093230203
:10192000809125028093240281E080930F038091AF
:101930000502909106025FEF8F3F950759F00196DF
:10194000909306028093050205C080910502909154
:101950000602F5CFFF91EF919F918F917F916F914B
:101960005F914F913F912F910F900BBE0F900FBE43
:101970000F901F9018958091240208958091140271
:10198000882309F4FCC180910F03882309F4F7C16F
:101990000E94BB0C80930E0310920F03E82FF0E01F
:1019A000E533F10508F0B7C1EE58FF4FEE0FFF1F0A
:1019B0000590F491E02D19941092F3021092F20226
:1019C0001092F5021092F402A6C12091F202309119
:1019D000F3028091F4029091F502821793072CF4A0
:1019E0003093F5022093F40204C09093F3028093A5
:1019F000F2022091F2023091F302225E3F4F3093C7
:101A0000F3022093F2028091F4029091F5024E9637
:101A10009093F5028093F40242E02130340734F0D1
:101A200020E032E03093F3022093F20222E0813092
:101A300092070CF470C180E092E09093F5028093DD
:101A4000F40269C18091F2029091F3022091F002B8
:101A50003091F102821793072CF49093F502809352
:101A6000F40208C08091F4029091F5029093F30281
:101A70008093F2022091F2023091F3022E51304015
:101A80003093F3022093F2028091F4029091F502D8
:101A90004E979093F5028093F4024EEF2030340776
:101AA00034F420E03EEF3093F3022093F2022EEF65
:101AB000803092070CF02FC180E09EEF9093F502EA
:101AC0008093F40228C12091F2023091F3022E514A
:101AD00030403093F3022093F2028091F40290910F
:101AE000F5024E969093F5028093F4024EEF20306B
:101AF000340734F420E03EEF3093F3022093F202F7
:101B000022E0813092070CF406C180E092E09093CD
:101B1000F5028093F402FFC02091F2023091F302AB
:101B2000225E3F4F3093F3022093F2028091F40241
:101B30009091F5024E979093F5028093F40242E063
:101B40002130340734F020E032E03093F302209368
:101B5000F2022EEF803092070CF0DDC080E09EEFA5
:101B60009093F5028093F402D6C08091F402909194
:101B7000F5024E969093F5028093F40242E0813094
:101B800094070CF4C8C080E092E09093F502809333
:101B9000F402C1C08091F2029091F3024E969093AC
:101BA000F3028093F20222E0813092070CF4B3C07A
:101BB00080E092E09093F3028093F202B2C08091B1
:101BC000F4029091F5024E979093F5028093F402FF
:101BD0004EEF803094070CF09EC080E09EEF909313
:101BE000F5028093F40297C08091F2029091F30283
:101BF0004E979093F3028093F2022EEF803092077B
:101C00000CF089C080E09EEF9093F3028093F20283
:101C100091C08091100390E0019665E070E00E9411
:101C2000C72180931003882351F4449A459A109257
:101C300012028FEF809311028093100228C081302E
:101C400041F48FEF809312021092110280931002E0
:101C50001EC0823051F4449845988FEF8093120251
:101C6000809311021092100212C0833039F4109246
:101C70001202109211021092100209C0843039F43D
:101C80008FEF809312028093110280931002809153
:101C900010020E941F1E809111020E94331E80912B
:101CA00012020E94471E37C081E08093300333C088
:101CB0001092300330C081E0809331032CC0109229
:101CC000310329C08091110390E0019664E070E037
:101CD0000E94C72180931103813061F0813028F088
:101CE000823071F08330B9F411C010923003109239
:101CF000310311C081E080933003109231030BC097
:101D00001092300381E08093310305C081E080931D
:101D10003003809331038091F2029091F302992372
:101D20004CF09595879595958795909305038093AD
:101D300004030BC0909581959F4F95958795959538
:101D4000879590930503809304038091F40290910A
:101D5000F50299234CF095958795959587959093E5
:101D60000303809302030895909581959F4F959565
:101D70008795959587959093030380930203089523
:101D80000F931F93CF93DF93E0E9F0E0108241E9D6
:101D900050E0DA011C9221E730E0E9011882A0EA64
:101DA000B0E01C9281EA90E0EC01188202E710E0BA
:101DB000E80118826081636860836081636060838A
:101DC000EA0168816B6068834091EE025091EF02F6
:101DD000509399004093980010929B0010929A00A3
:101DE000E90148814160488320812F7520832EB10D
:101DF000277E2EB92C9123682C93FC0120812B6027
:101E000020838091F0029091F1029093A900809339
:101E1000A8001092AB001092AA00E80188818160AE
:101E200088838C918F758C93E2E0F1E08081877ECE
:101E30008083DF91CF911F910F91089580910B02C4
:101E4000882309F456C08091E6029091E7029695A6
:101E50008795969587959093EB028093EA0210926E
:101E60000B021092E7021092E6022091F4023091E8
:101E7000F5023323FCF09595879595958795959573
:101E80008795AA2797FDA095BA2F2091DA02309165
:101E9000DB024091DC025091DD02820F931FA41FF0
:101EA000B51F8093DA029093DB02A093DC02B0931B
:101EB000DD021FC095958795959587959595879592
:101EC0009C01442737FD4095542F8091DA02909170
:101ED000DB02A091DC02B091DD02821B930BA40B0C
:101EE000B50B8093DA029093DB02A093DC02B093EF
:101EF000DD0280910C02882309F456C08091E8022B
:101F00009091E90296958795969587959093ED0225
:101F10008093EC0210920C021092E9021092E802F7
:101F20002091F2023091F3023323FCF095958795CE
:101F30009595879595958795AA2797FDA095BA2F92
:101F40002091D6023091D7024091D8025091D90207
:101F5000820F931FA41FB51F8093D6029093D702C0
:101F6000A093D802B093D9021FC0959587959595F7
:101F70008795959587959C01442737FD4095542F6B
:101F80008091D6029091D702A091D802B091D90247
:101F9000821B930BA40BB50B8093D6029093D702B0
:101FA000A093D802B093D9028091F2029091F302EB
:101FB0009093FF028093FE028091F4029091F502CB
:101FC000909301038093000380913003882331F0C4
:101FD00080E093E06EEF72E00E94F317209100031F
:101FE000309101033093E5022093E4028091FE02D8
:101FF0009091FF029093E3028093E2023093F1020A
:102000002093F0029093EF028093EE0218161906C7
:102010002CF4909399008093980012C0992344F473
:10202000909581959F4F90939B0080939A0008C054
:10203000109299001092980010929B0010929A00B2
:102040008091F0029091F102181619062CF49093E9
:10205000A9008093A8000895992344F49095819550
:102060009F4F9093AB008093AA0008951092A9000F
:102070001092A8001092AB001092AA0008958091CF
:10208000F4029091F50290930103809300038091F4
:10209000F2029091F3029093FF028093FE028091EE
:1020A0003003882331F080E093E06EEF72E00E940D
:1020B000F31740910003509101035093E5024093C0
:1020C000E4028091FE029091FF029093E3028093DC
:1020D000E20280910B02882309F481C08091E6021C
:1020E0009091E70296958795969587959093EB0248
:1020F0008093EA0210920B021092E7021092E6021D
:102100005523FCF095958795959587959595879599
:10211000AA2797FDA095BA2F2091DA023091DB0211
:102120004091DC025091DD02820F931FA41FB51F66
:102130008093DA029093DB02A093DC02B093DD027D
:102140001FC09595879595958795959587959C0141
:10215000442737FD4095542F8091DA029091DB029D
:10216000A091DC02B091DD02821B930BA40BB50B96
:102170008093DA029093DB02A093DC02B093DD023D
:1021800080911902813029F480E093E00E942A09AD
:1021900004C080E093E00E94440580910003909188
:1021A00001039093F1028093F002181619062CF4A3
:1021B0009093A9008093A80012C0992344F49095AD
:1021C00081959F4F9093AB008093AA0008C0109216
:1021D000A9001092A8001092AB001092AA00809162
:1021E0000C02882309F485C08091E8029091E902ED
:1021F00096958795969587959093ED028093EC023E
:1022000010920C021092E9021092E8022091E20270
:102210003091E3023323FCF095958795959587954A
:1022200095958795AA2797FDA095BA2F2091D6025C
:102230003091D7024091D8025091D902820F931F5A
:10224000A41FB51F8093D6029093D702A093D80203
:10225000B093D9021FC095958795959587959595CB
:1022600087959C01442737FD4095542F8091D602D5
:102270009091D702A091D802B091D902821B930B02
:10228000A40BB50B8093D6029093D702A093D802EB
:10229000B093D90280911902813029F48EEF92E037
:1022A0000E94380804C08EEF92E00E94BE06809122
:1022B000FE029091FF029093EF028093EE021816B7
:1022C00019062CF49093990080939800089599230F
:1022D00044F4909581959F4F90939B0080939A0032
:1022E0000895109299001092980010929B001092FD
:1022F0009A000895282F332727FD309533231CF4A7
:10230000309521953F4F3093030320930203882398
:102310004CF0220F331F220F331F3093F50220930E
:10232000F4020BC0220F331F220F331F309521956B
:102330003F4F3093F5022093F4028091F402909184
:10234000F50222E0813092073CF080E092E0909329
:10235000F5028093F40208952EEF8030920734F452
:1023600080E09EEF9093F5028093F4020895282F69
:10237000332727FD309533231CF4309521953F4FAB
:10238000309305032093040388234CF0220F331F5E
:10239000220F331F3093F3022093F2020BC0220F5F
:1023A000331F220F331F309521953F4F3093F30297
:1023B0002093F2028091F2029091F30222E08130A8
:1023C00092073CF080E092E09093F3028093F20257
:1023D00008952EEF8030920734F480E09EEF9093C2
:1023E000F3028093F20208951F920F920FB60F929C
:1023F0000BB60F9211248F939F93AF93BF93CF93FC
:10240000DF93EF93FF9380913203882361F0109262
:10241000F1021092F0021092A9001092A8001092FE
:10242000AB001092AA001092DF021092DE0280919F
:10243000F0029091F102009749F58091E4029091A9
:10244000E50299233CF081E080932D028EE0809399
:102450002A0206C081E080932D028FE080932A0239
:1024600081E080930E02E0EAF0E080818F75808346
:10247000E2E0F1E08081877E8083E2E7F0E0808126
:10248000897F808389B3866089BB3AC01816190694
:10249000DCF410922D028FE080932A02A0EAB0E0D3
:1024A0008C918F7D8C93E2E7F0E080818B7F80833D
:1024B000C2E0D1E088818F7E88838C9180688C9384
:1024C0008081826080831CC09923D4F410922D02F5
:1024D0008EE080932A02A0EAB0E08C918F778C93F3
:1024E000E2E7F0E080818D7F8083C2E0D1E08881E7
:1024F000877F88838C9180628C93808184608083C5
:10250000FF91EF91DF91CF91BF91AF919F918F910B
:102510000F900BBE0F900FBE0F901F9018951F923B
:102520000F920FB60F9211248F939F9381E08093A7
:102530002D029EE090932A0280930E029F918F912C
:102540000F900FBE0F901F9018951F920F920FB60D
:102550000F9211248F939F9381E080932D029FE02F
:1025600090932A0280930E029F918F910F900FBE3D
:102570000F901F9018951F920F920FB60F920BB6E7
:102580000F9211248F939F93AF93BF93EF93FF9379
:1025900080913203882361F01092EF021092EE02D4
:1025A000109299001092980010929B0010929A003D
:1025B0001092E1021092E0028091EE029091EF02FF
:1025C000009739F58091E2029091E30299233CF063
:1025D00081E080932C028CE080932B0206C081E086
:1025E00080932C028DE080932B0281E080930D027A
:1025F000E0E9F0E080818F7580838EB1877E8EB9AF
:10260000E1E7F0E08081897F808388B3866088BBC2
:1026100032C018161906BCF410922C028DE080937B
:102620002B02A0E9B0E08C918F7D8C93E1E7F0E084
:1026300080818B7F808374988C9180688C9380815B
:102640008260808318C09923B4F410922C028CE02D
:1026500080932B02A0E9B0E08C918F778C93E1E717
:10266000F0E080818D7F808373988C9180628C9361
:10267000808184608083FF91EF91BF91AF919F91A2
:102680008F910F900BBE0F900FBE0F901F9018955B
:102690001F920F920FB60F9211248F939F9381E098
:1026A00080932C029CE090932B0280930D029F91CB
:1026B0008F910F900FBE0F901F9018951F920F9241
:1026C0000FB60F9211248F939F9381E080932C0279
:1026D0009DE090932B0280930D029F918F910F901C
:1026E0000FBE0F901F9018951092C50080E1809347
:1026F000C400E0ECF0E0808182608083E1ECF0E0F7
:10270000808188698083E2ECF0E08081866080834C
:1027100008951092C0001092C1001092C200089556
:10272000E0ECF0E0908195FFFDCF8093C60066233A
:1027300029F0E0ECF0E0808186FFFDCF08951F9244
:102740000F920FB60F9211242F933F938F939F9365
:102750002091C60080911302882329F01092130261
:1027600020930A0336C080910A03813019F0823029
:1027700081F50EC02A3A21F481E080930D0329C02F
:10278000253539F581E08093130210920A0321C0A8
:1027900080910C03882341F42093060310920703D1
:1027A00081E080930C0315C0813099F4922F80E072
:1027B0002091060330910703822B932B90930703FC
:1027C0008093060381E080930B0310920C038093A7
:1027D00013029F918F913F912F910F900FBE0F90F9
:1027E0001F90189580913C03882339F428988FEF27
:1027F0000E94901D289A8074089580E0089528987A
:1028000082EE0E94901D289A08951F93162F2898F3
:102810008F7180620E94901D812F0E94901D289AC6
:102820001F910895CF93DF93EC01289881E60E94D1
:10283000901DCE01BE014DE00E94421D289A87E006
:1028400060E40E940514DF91CF9108951F93CF9308
:10285000DF93EB01142F28988F7180620E94901DE6
:10286000CE01612F0E946E1D289ADF91CF911F919A
:1028700008950F931F93DF93CF9300D0CDB7DEB7AA
:1028800080E06DE00E94051483E061E00E94051481
:10289000809106039091070399838A831B8280E1CC
:1028A0008E010F5F1F4FB80143E00E9426148AE09B
:1028B000B80143E00E94261481E061E00E94051403
:1028C00082E061E00E94051484E062E10E94051448
:1028D00085E068E20E94051481E16DE00E94051424
:1028E000289880E50E94901D83E70E94901D289AF9
:1028F0008CE161E00E9405148DE166E00E94051400
:1029000080E06FE00E9405140F900F900F90CF9120
:10291000DF911F910F9108952C9A289A0E943914E3
:102920000895289881EE0E94901D289A0895EF92AC
:10293000FF920F931F93CF93DF93F82EE92E162F5C
:102940000E949114289888EA0E94901D112371F02A
:102950000F2D8E2DEF2CE7017E01F82EE7018991D6
:102960000E94901D7E01E01AE116C8F3289ADF91BB
:10297000CF911F910F91FF90EF9008951F93CF93E8
:10298000DF930E94F213882309F422C38091080385
:1029900082608093080387E060E70E9405148AE55F
:1029A00093E00E9412140E94FF1380915A0388231F
:1029B000B9F480915B03882399F480915C038823A8
:1029C00079F480915D03883059F480915E03882307
:1029D00039F480915F03882319F48CE30E94AA0ADA
:1029E00050915E03252F30E02F7730703093050330
:1029F0002093040340915F03842F90E08F779070C1
:102A0000909303038093020355234CF4220F331F4A
:102A1000220F331F3093F3022093F2020BC0220FD8
:102A2000331F220F331F309521953F4F3093F30210
:102A30002093F20244234CF4880F991F880F991FAA
:102A40009093F5028093F4020BC0880F991F880FB2
:102A5000991F909581959F4F9093F5028093F40272
:102A60008091F2029091F30222E08130920734F0DB
:102A700080E092E09093F3028093F2028091F4025E
:102A80009091F50222E08130920734F080E092E0EC
:102A90009093F5028093F4028091F2029091F302F8
:102AA0002EEF8030920734F480E09EEF9093F30293
:102AB0008093F2028091F4029091F5022EEF803023
:102AC000920734F480E09EEF9093F5028093F40235
:102AD00020915A0330E03093530320935203E09146
:102AE0005B03F0E0F0935503E093540380915C03A3
:102AF000C82FD0E0D0935703C0935603922F882756
:102B0000821B930B24E630E0B9010E94B321162FFB
:102B10001095109310029E2F88278E1B9F0BB901D2
:102B20000E94B3216095609312025C2F4427CA0172
:102B30008C1B9D0BB9010E94B3216095609311021B
:102B4000812F0E941F1E809111020E94331E8091CE
:102B500012020E94471E80915D0380FF02C04498CC
:102B600001C0449A80915D0381FF02C0459801C075
:102B7000459A80915D0382FF04C091E09093140216
:102B800002C01092140284FF02C00E94851B809133
:102B90005D0386FF04C091E09093300302C0109261
:102BA0003003882324F481E08093310302C0109223
:102BB00031038091600380FF06C0EBE0F1E080818B
:102BC0008E7F808305C0EBE0F1E0808181608083AF
:102BD0008091600381FF06C0EBE0F1E080818D7F92
:102BE000808305C0EBE0F1E080818260808380918A
:102BF000600382FF06C0EBE0F1E080818B7F808381
:102C000005C0EBE0F1E08081846080838091600307
:102C100083FF02C0A39801C0A39A8091600384FF40
:102C200006C0EBE0F1E080818F7E808305C0EBE0A1
:102C3000F1E08081806180838091600385FF06C020
:102C4000EBE0F1E080818F7D808305C0EBE0F1E077
:102C50008081806280838091600386FF06C0EBE004
:102C6000F1E080818F7B808305C0EBE0F1E0808123
:102C70008064808380916003882334F4EBE0F1E08A
:102C800080818F77808305C0EBE0F1E080818068F0
:102C9000808380910F0280934203853009F4B4C091
:102CA000863030F4833059F0843009F08CC16CC028
:102CB000863009F405C1873009F085C153C1909170
:102CC0005E0280915F02909343038093440390914E
:102CD0006002809161029093450380934603909136
:102CE000620280916302909347038093480390911E
:102CF0006402809165029093490380934A03909106
:102D000068028091690290934B0380934C039091E9
:102D10006A0280916B0290934D0380934E039091D1
:102D20006C0280916D0290934F0380935003E3E017
:102D3000F1E020814081808150E0407250705595D3
:102D4000479555954795559547955595479555956B
:102D50004795440F551F881F8827881F880F880FA5
:102D6000482B30E020713070C90195958795959575
:102D700087959595879595958795842B8093510395
:102D800084E080930F021FC19091660280916702D8
:102D9000909343038093440390916E0280916F025D
:102DA0009093450380934603909170028091710245
:102DB000909347038093480390917202809173022D
:102DC0009093490380934A03909174028091750215
:102DD00090934B0380934C039091130380911403C1
:102DE00090934D0380934E039091150380911603A9
:102DF00090934F038093500380910E03809351036F
:102E000085E080930F02DFC080912E0290912F0207
:102E10008093430380912E0290912F02909344035C
:102E20008091320290913302809345038091320267
:102E3000909133029093460380913602909137022D
:102E40008093470380913602909137029093480314
:102E500080913A0290913B028093490380913A021B
:102E600090913B0290934A038091420290914302D9
:102E700080934B03809142029091430290934C03C4
:102E8000809146029091470280934D0380914602C3
:102E90009091470290934E0380914A0290914B0289
:102EA00080934F0380914A0290914B02909350037C
:102EB00080912C038093510386E080930F0283C09E
:102EC00080913E0290913F028093430380913E02A5
:102ED00090913F029093440380914E0290914F0253
:102EE0008093450380914E0290914F029093460348
:102EF0008091520290915302809347038091520235
:102F000090915302909348038091560290915702FA
:102F100080934903809156029091570290934A03FF
:102F200080915A0290915B0280934B0380915A02E8
:102F300090915B0290934C0390911703809118033A
:102F400090934D0380934E039091C2028091C302EF
:102F500090934F03809350031092510387E0809326
:102F60000F0231C03091DA022091DB029091DC0235
:102F70008091DD02309343032093440390934503F3
:102F8000809346033091D6022091D7029091D802C7
:102F90008091D902309347032093480390934903CB
:102FA00080934A0310924B0310924C0310924D03EE
:102FB00010924E0310924F0310925003109251033F
:102FC00083E080930F0282E493E060E10E94971413
:102FD000DF91CF911F910895809194009091950079
:102FE0000E942D2208952F923F924F925F926F92EE
:102FF0007F928F929F92AF92BF92CF92DF92EF9289
:10300000FF920F931F93DF93CF93CDB7DEB728972F
:103010000FB6F894DEBF0FBECDBF98878F838B01AC
:10302000FC010190F081E02DFA83E983FB0101901E
:10303000F081E02DFC83EB83E6ECF2E09F01205F62
:103040003F4F808191818530910514F41182108267
:103050003296E217F307A9F7C090C602D090C702D4
:10306000D094C194D108D3944090C8025090C90222
:1030700055944794A090CC02B090CD02B594A794FB
:10308000E090CE02F090CF028090D0029090D102DA
:10309000959487946090D4027090D502759467944B
:1030A0000E94282222EE3FEFE20EF31EEC0CFD1CE4
:1030B000EA0CFB1CE80CF91CE418F508970126192A
:1030C00037090F2EFCE3EF2EFF24F02DB7010E94ED
:1030D000C721A901480F591F5E834D83C090C802C4
:1030E000D090C902D594C794A090CA02B090CB02E8
:1030F000B594A794B594A7948090CC029090CD02FB
:10310000959487942090D0023090D10235942794E2
:103110004090D2025090D3025594479455944794CE
:103120006090D4027090D502759467940E94282212
:1031300096012A0D3B1D2E513040280D391D2219B4
:1031400033092419350926193709B7010E94C72107
:103150007901E80EF91E69817A81772374F15B01A8
:10316000CC24B7FCC094DC2C8D819E819C0144272B
:1031700037FD4095542FC701AA2797FDA095BA2F78
:1031800039014A01681A790A8A0A9B0AC401B30103
:10319000A60195010E949421689416F8959587954B
:1031A000779567951694D1F76A0D7B1D8C1D9D1D33
:1031B000EF81F885718360832DC06B807C80530123
:1031C000CC24B7FCC094DC2C9701442737FD4095F4
:1031D000542F8D809E80B401882777FD8095982F8D
:1031E000620F731F841F951FA60195010E949421F1
:1031F000DC01CB01689416F8B595A795979587954E
:103200001694D1F7281B390B4A0B5B0BEF81F8851D
:10321000318320836B807C8077205CF15301CC2448
:10322000B7FCC094DC2C9701442737FD4095542F00
:103230008D809E80C401AA2797FDA095BA2FBC015E
:10324000CD01620F731F841F951FA60195010E9477
:103250009421689416F895958795779567951694B7
:10326000D1F7A60EB71EC81ED91EF801B182A082E2
:103270002CC069807A805301CC24B7FCC094DC2C2C
:103280008D809E80B401882777FD8095982F9701C7
:10329000442737FD4095542F621B730B840B950B0D
:1032A000A60195010E949421DC01CB01689416F8D7
:1032B000B595A795979587951694D1F7A81AB90A49
:1032C000CA0ADB0AF801B182A082F80180819181EB
:1032D000F2E081309F072CF080E092E0F8019183CA
:1032E0008083EF81F88580819181F2E081309F07B2
:1032F00034F080E092E0EF81F88591838083F801DB
:1033000080819181FEEF80309F072CF480E09EEF5A
:10331000F80191838083EF81F88580819181FEEFB0
:1033200080309F0734F480E09EEFEF81F885918331
:10333000808328960FB6F894DEBF0FBECDBFCF9125
:10334000DF911F910F91FF90EF90DF90CF90BF9092
:10335000AF909F908F907F906F905F904F903F9035
:103360002F90089581E080933003089510923003E8
:10337000089581E0809331030895109231030895F8
:10338000809116020E94A21D882321F00E94CC1D6C
:1033900081E0089586E10E94D51D85E40E94D51D37
:1033A0000E94CC1D80E00895809116020E94A21D0B
:1033B000882321F00E94CC1D81E008958DE20E94B7
:1033C000D51D88E00E94D51D0E94CC1D809116025B
:1033D0000E94A21D882321F00E94CC1D81E0089547
:1033E00081E30E94D51D80E00E94D51D0E94CC1D66
:1033F000809116020E94A21D882321F00E94CC1DFC
:1034000081E008958CE20E94D51D89E00E94D51DBF
:103410000E94CC1D80E008950E949A1D0E94C01950
:10342000882389F086EA90E0909317028093160231
:103430000E94D419882321F082E08093120308951A
:1034400081E0809312030895EF92FF920F931F93F0
:10345000DF93CF9300D000D0CDB7DEB780911203B9
:10346000882309F09BC0809116020E94A21D80E073
:103470000E94D51D809116028F5F0E94C91D8E018A
:103480000F5F1F4F0F2EF6E0EF2EFF24F02DEC0EF6
:10349000FD1E0E94E71DF80181938F01EE15FF05C7
:1034A000C1F70E94F21D8E830E94CC1D809169039A
:1034B000882389F12A81332727FD3095322F22274F
:1034C0008981992787FD9095822B932B90931403E4
:1034D000809313032C81332727FD3095322F222729
:1034E0008B81992787FD9095822B932B90931603C0
:1034F000809315032E81332727FD3095322F222705
:103500008D81992787FD9095822B932B909318039B
:1035100080931703EDC02A81332727FD3095322F82
:1035200022278981992787FD9095822B932B2091C3
:10353000190330911A03821B930B90931403809309
:1035400013032C81332727FD3095322F22278B81BF
:10355000992787FD9095822B932B20911B03309107
:103560001C03821B930B90931603809315032E81EB
:10357000332727FD3095322F22278D81992787FD0C
:103580009095822B932B20911D0330911E03821B5B
:10359000930B9093180380931703AAC0813009F00E
:1035A0009BC0809116020E94A21D82E30E94D51D3D
:1035B000809116028F5F0E94C91D8E010F5F1F4F01
:1035C0000F2EF6E0EF2EFF24F02DEC0EFD1E0E94D4
:1035D000E71DF80181938F01EE15FF05C1F70E94E9
:1035E000F21D8E830E94CC1D80916903882389F18E
:1035F0002A81332727FD3095322F22278981992769
:1036000087FD9095822B932B909314038093130343
:103610002C81332727FD3095322F22278B81992744
:1036200087FD9095822B932B90931603809315031F
:103630002E81332727FD3095322F22278D81992720
:1036400087FD9095822B932B9093180380931703FB
:103650004FC02A81332727FD3095322F22278981B9
:10366000992787FD9095822B932B209119033091F8
:103670001A03821B930B90931403809313032C81E2
:10368000332727FD3095322F22278B81992787FDFD
:103690009095822B932B20911B0330911C03821B4E
:1036A000930B90931603809315032E81332727FDE8
:1036B0003095322F22278D81992787FD9095822B77
:1036C000932B20911D0330911E03821B930B90932B
:1036D0001803809317030CC0109214031092130365
:1036E00010921603109215031092180310921703EC
:1036F00026960FB6F894DEBF0FBECDBFCF91DF91F7
:103700001F910F91FF90EF9008956F927F928F928B
:103710009F92AF92BF92CF92DF92EF92FF920F9360
:103720001F93CF93DF931092100210921102109208
:10373000120280E00E941F1E809111020E94331E1F
:10374000809112020E94471E10922E0310922D03A8
:1037500081E0809369030F2EFEE5AF2EF2E0BF2ECD
:10376000F02D0F2EFEE8CF2EF2E0DF2EF02D85019A
:10377000085E1F4F0F2EF6E78F2EF2E09F2EF02DE2
:103780000F2EF0E3EF2EFF24F02DEC0CFD1C662431
:10379000772463940E94241A60912D0370912E0364
:1037A000613171050CF06EC08091C502882309F467
:1037B000C2C01092C50261157105E1F4F601D40191
:1037C00011921192119211921D921D92EE15FF0508
:1037D000B9F71092200310921F0310922203109247
:1037E0002103109224031092230370922E036092FF
:1037F0002D03A1C0E501F60189919991AA2797FDB2
:10380000A095BA2F2081318142815381820F931F6D
:10381000A41FB51F81939193A193B193C017D107B2
:1038200059F720911F033091200380911303909149
:103830001403820F931F9093200380931F03209102
:103840002103309122038091150390911603820F7A
:10385000931F90932203809321032091230330919F
:1038600024038091170390911803820F931F909364
:103870002403809323036F5F7F4F70932E03609325
:103880002D0359C0EEE8F2E0C6E7D2E09F01205DCB
:103890003F4F81919191A191B191689413F8B695A0
:1038A000A795979587951694D1F789939993E217E1
:1038B000F30779F7E6E8F2E09F01285F3F4F808148
:1038C00091818050924081939193E217F307B9F769
:1038D00080911F03909120039595879595958795E5
:1038E000959587959595879590931A0380931903DD
:1038F00080912103909122039595879595958795C1
:10390000959587959595879590931C0380931B03B8
:10391000809123039091240395958795959587959C
:10392000959587959595879590931E0380931D0394
:103930001092690305C080916903882309F02ACF9A
:103940008FEF8093100280931102809312020E94E5
:103950001F1E809111020E94331E809112020E944C
:10396000471EDF91CF911F910F91FF90EF90DF9055
:10397000CF90BF90AF909F908F907F906F90089561
:10398000EF92FF920F931F9380911703909118036A
:1039900099231CF4909581959F4F8031910520F4D7
:1039A00081E08093180202C01092180280911702E1
:1039B00090911802891761F4909127039F5F90936B
:1039C0002703953038F0109227038093190202C024
:1039D00010922703809118028093170260911303BD
:1039E00070911403882777FD8095982F0E940F20EF
:1039F0007B018C016091150370911603882777FD78
:103A00008095982F0E940F209B01AC01C801B7013F
:103A10000E94231F21EE3EE245E652E40E94C720A9
:103A20000E94DC1F9B01709326036093250377237C
:103A300034F428593E4F30932603209325031F91D9
:103A40000F91FF90EF90089581E090E021E007C092
:103A5000019637E28031930710F0209309030DB4EB
:103A600007FEF6CF089584B1807F84B984B1876062
:103A700084B980E58CBD8DB581608DBD08951CBC79
:103A80001DBC0895CF92DF92EF92FF920F931F9388
:103A9000CF93DF93F42E4423C1F0E82E062F172F87
:103AA000C82EE6016E01D92EE60189918EBD0E94D5
:103AB000241D80910903882341F48EB5F801819378
:103AC0008F016E01CE18CF1480F3DF91CF911F913B
:103AD0000F91FF90EF90DF90CF900895EF92FF92BB
:103AE0000F931F93CF93DF93162F662391F0082F28
:103AF000E82EE7017E01F92EE70189918EBD0E9433
:103B0000241D80910903882321F47E01E01AE11627
:103B1000A0F3DF91CF911F910F91FF90EF90089547
:103B20008EBD0E94241D8EB508951092B80010928B
:103B3000BC000895589A599A1092B90081E0809378
:103B4000B800089594EA9093BC00ECEBF0E090810B
:103B50009923ECF79091B900987F983011F090314B
:103B6000A1F48093BB0084E88093BC00ECEBF0E010
:103B700080818823ECF79091B900987F983139F0D3
:103B800081E0903429F480E0089581E0089580E098
:103B900008950E94A21D089584E98093BC00ECEB77
:103BA000F0E0808184FDFDCF08958093BB0084E820
:103BB0008093BC00ECEBF0E080818823ECF79091DF
:103BC000B900987F81E0983209F480E0089584EC90
:103BD0008093BC00ECEBF0E080818823ECF78091CF
:103BE000BB00089584E88093BC00ECEBF0E080819A
:103BF0008823ECF78091BB000895A0E8B0E01C9208
:103C0000E1E8F0E010828C91896A8C938081896070
:103C100080838091100290E09093890080938800C7
:103C20008091110290E090938B0080938A008091A4
:103C3000120290E090938D0080938C000895882369
:103C400039F4E0E8F0E080818F7780832D98089543
:103C5000E0E8F0E090819068908390E09093890094
:103C6000809388000895882339F4E0E8F0E08081AB
:103C70008F7D80832E980895E0E8F0E09081906237
:103C8000908390E090938B0080938A00089588231E
:103C900039F4E0E8F0E08081877F80832F980895F1
:103CA000E0E8F0E090819860908390E090938D0040
:103CB00080938C0008950E94B21E0E94E1000E9431
:103CC000F20080E090E0009729F00E9400000E943E
:103CD000F200FBCF0E94F200FDCF1F920F920FB6B1
:103CE0000F9211242F938F939F93AF93BF93809143
:103CF000370390913803A0913903B0913A03209192
:103D00003B030296A11DB11D2A5F2D3720F02D57D0
:103D10000196A11DB11D20933B038093370390931F
:103D20003803A0933903B0933A0380913303909101
:103D30003403A0913503B09136030196A11DB11D46
:103D40008093330390933403A0933503B0933603E9
:103D5000BF91AF919F918F912F910F900FBE0F90B8
:103D60001F901895789484B5826084BD84B5816075
:103D700084BD85B5826085BD85B5816085BDEEE673
:103D8000F0E0808181608083E1E8F0E01082808152
:103D900082608083808181608083E0E8F0E08081C0
:103DA00081608083E1EBF0E0808184608083E0EBE0
:103DB000F0E0808181608083E1E9F0E080818260D1
:103DC0008083808181608083E0E9F0E08081816090
:103DD0008083E1EAF0E0808182608083808181607D
:103DE0008083E0EAF0E0808181608083E1E2F1E0BD
:103DF000808182608083808181608083E0E2F1E065
:103E0000808181608083EAE7F0E080818460808344
:103E100080818260808380818160808380818068EE
:103E200080831092C100089563D158F080E891E03A
:103E300009F49EEF64D128F040E851E059F45EEFB8
:103E400009C02EC196C1E92FE07871D168F3092E1F
:103E5000052AC1F3261737074807590738F00E2EF1
:103E600007F8E02569F0E025E0640AC0EF6307F891
:103E7000009407FADB01B9019D01DC01CA01AD0123
:103E8000EF9341D043D10AD05F91552331F02BED10
:103E90003FE049E450FD49ECE1C10895DF93DD279F
:103EA000B92FBF7740E85FE31616170648075B0790
:103EB00010F4D92F65D19F938F937F936F93CAD1BD
:103EC000EEE4F1E0F0D022D12F913F914F915F913C
:103ED0006AD1DD2349F09058A2EA2AED3FE049EC8F
:103EE0005FE3D0785D27CBD1DF9110C108D140F0DE
:103EF000FFD030F021F45F3F19F0CCC051113AC12E
:103F0000CFC015D198F39923C9F35523B1F3951B6D
:103F1000550BBB27AA2762177307840738F09F5FEA
:103F20005F4F220F331F441FAA1FA9F333D00E2E59
:103F30003AF0E0E830D091505040E695001CCAF7C6
:103F400029D0FE2F27D0660F771F881FBB1F26178B
:103F500037074807AB07B0E809F0BB0B802DBF015E
:103F6000FF2793585F4F2AF09E3F510568F092C09B
:103F700001C15F3FECF3983EDCF38695779567953A
:103F8000B795F7959F5FC9F7880F911D969587950F
:103F900097F90895E1E0660F771F881FBB1F62172E
:103FA00073078407BA0720F0621B730B840BBA0BEC
:103FB000EE1F88F7E095089504D06894B111DAC037
:103FC0000895BDD088F09F5790F0B92F9927B75129
:103FD000A0F0D1F0660F771F881F991F1AF0BA95CD
:103FE000C9F712C0B13081F0C4D0B1E00895C1C0AA
:103FF000672F782F8827B85F39F0B93FCCF38695C3
:1040000077956795B395D9F73EF49095809570951F
:1040100061957F4F8F4F9F4F0895E89409C097FB9C
:104020003EF490958095709561957F4F8F4F9F4F8F
:104030009923A9F0F92F96E9BB279395F6958795D3
:1040400077956795B795F111F8CFFAF4BB0F11F496
:1040500060FF1BC06F5F7F4F8F4F9F4F16C088233D
:1040600011F096E911C0772321F09EE8872F762F73
:1040700005C0662371F096E8862F70E060E02AF0B4
:104080009A95660F771F881FDAF7880F96958795A0
:1040900097F9089597F99F6780E870E060E00895C8
:1040A0009FEF80EC0895DF93CF931F930F93FF92C0
:1040B000EF92DF927B018C01689405C0DA2EEF014C
:1040C00072D0FE01E894A5912591359145915591C5
:1040D000AEF3EF01D4D0FE019701A801DA9479F78D
:1040E000DF90EF90FF900F911F91CF91DF91089596
:1040F00000240A94161617061806090608950024C7
:104100000A9412161306140605060895092E039440
:10411000000C11F4882352F0BB0F40F4BF2B11F4B4
:1041200060FF04C06F5F7F4F8F4F9F4F089557FD13
:104130009058440F551F59F05F3F71F04795880F15
:1041400097FB991F61F09F3F79F0879508951216AC
:1041500013061406551FF2CF4695F1DF08C0161658
:1041600017061806991FF1CF869571056105089409
:104170000895E894BB2766277727CB0197F9089520
:104180009B01AC0160E070E080E89FE3CBC00BD006
:10419000BDCFAEDF28F0B3DF18F0952309F07ACF5A
:1041A0007FCF1124E7CFC3DFA0F3959FD1F3950F05
:1041B00050E0551F629FF001729FBB27F00DB11DAB
:1041C000639FAA27F00DB11DAA1F649F6627B00D3B
:1041D000A11D661F829F2227B00DA11D621F739F24
:1041E000B00DA11D621F839FA00D611D221F749F32
:1041F0003327A00D611D231F849F600D211D822F79
:10420000762F6A2F11249F5750408AF0E1F08823BF
:104210004AF0EE0FFF1FBB1F661F771F881F9150CC
:104220005040A9F79E3F510570F034CFA3CF5F3FB8
:10423000ECF3983EDCF3869577956795B795F795FF
:10424000E7959F5FC1F7FE2B880F911D9695879587
:1042500097F908959B01AC019ACF5058BB27AA2724
:104260000ED054CF45DF30F04ADF20F031F49F3FCD
:1042700011F41EF415CF0EF4E095E7FB0BCFE92FF8
:1042800056DF80F3BA17620773078407950718F0A3
:1042900071F49EF56ECF0EF4E0950B2EBA2FA02D83
:1042A0000B01B90190010C01CA01A0011124FF27E3
:1042B000591B99F0593F50F4503E68F11A16F040DE
:1042C000A22F232F342F4427585FF3CF46953795DD
:1042D0002795A795F0405395C9F77EF41F16BA0BA2
:1042E000620B730B840BBAF09150A1F0FF0FBB1F50
:1042F000661F771F881FC2F70EC0BA0F621F731F99
:10430000841F48F4879577956795B795F7959E3FF5
:1043100008F0B3CF9395880F08F09927EE0F979583
:1043200087950895EEDDF2CE629FD001739FF00174
:10433000829FE00DF11D649FE00DF11D929FF00D35
:10434000839FF00D749FF00D659FF00D9927729F6C
:10435000B00DE11DF91F639FB00DE11DF91FBD01F7
:10436000CF0111240895AA1BBB1B51E107C0AA1F4E
:10437000BB1FA617B70710F0A61BB70B881F991F06
:104380005A95A9F780959095BC01CD01089597FBAA
:10439000092E07260AD077FD04D0E5DF06D00020DD
:1043A0001AF4709561957F4F0895F6F79095819571
:1043B0009F4F0895AF92BF92CF92DF92EF92FF92FC
:1043C0000F931F93CF93DF93EC01688179818A81EA
:1043D0009B81611571058105910521F464E279EDF8
:1043E0008BE597E02DE133EF41E050E00E9464223D
:1043F00079018A0127EA31E440E050E00E949421EB
:104400005B016C01C801B7012CEE34EF4FEF5FEF99
:104410000E9494216A0D7B1D8C1D9D1D97FF04C079
:104420006150704080409048688379838A839B8381
:104430007F77CB01DF91CF911F910F91FF90EF908C
:10444000DF90CF90BF90AF9008950E94DA21089539
:1044500080E092E00E94DA210895A0E0B0E080932D
:10446000000290930102A0930202B0930302089508
:10447000F999FECF92BD81BDF89A992780B508952C
:10448000A8E1B0E042E050E00C945622262FF999C2
:10449000FECF1FBA92BD81BD20BD0FB6F894FA9A27
:1044A000F99A0FBE01960895DC01CB01FC01F99940
:1044B000FECF06C0F2BDE1BDF89A319600B40D9270
:1044C00041505040B8F7089597FB092E05260ED0AD
:1044D00057FD04D014D00AD0001C38F450954095F4
:1044E000309521953F4F4F4F5F4F0895F6F79095C8
:1044F0008095709561957F4F8F4F9F4F0895A1E2F2
:104500001A2EAA1BBB1BFD010DC0AA1FBB1FEE1F4D
:10451000FF1FA217B307E407F50720F0A21BB30B98
:10452000E40BF50B661F771F881F991F1A9469F714
:1045300060957095809590959B01AC01BD01CF0170
:064540000895F894FFCF7E
:104546000100000002FFFF1900190001010101032B
:0A455600FFFFFF0101013A0101011E
:00000001FF
